:100000000C9434000C9451000C9451000C94510049
:100010000C9451000C9451000C9451000C9451001C
:100020000C9451000C9451000C9451000C9453000A
:100030000C9451000C9451000C9451000C945100FC
:100040000C9451000C9451000C9451000C945100EC
:100050000C9451000C9451000C9451000C945100DC
:100060000C9451000C94510011241FBECFEFD8E026
:10007000DEBFCDBF11E0A0E0B1E0EEE2FDE002C0E6
:1000800005900D92AC34B107D9F721E0ACE4B1E0B2
:1000900001C01D92AC35B207E1F70E9438010C9403
:1000A00095060C9400001F920F920FB60F92112428
:1000B0002F933F938F939F9380914C0190914D018B
:1000C000019690934D0180934C0180915A0190913B
:1000D0005B0120914C0130914D01892B71F0809191
:1000E00056019091570128173907A4F081E090E05C
:1000F00090934F0180934E010DC0809150019091DB
:1001000051012817390734F081E090E090935501B0
:10011000809354019F918F913F912F910F900FBE2B
:100120000F901F9018959BB19F709BB99BB1807FDA
:10013000892B8BB9299A299A29980895CF93C82F8A
:1001400028980E9493008C2F8295807F0E949300B4
:100150008FE39FE10197F1F700C00000CF91089570
:10016000811102C080E801C080EC860F0C949E00D3
:1001700084B1836084B98AB1806F8AB98FE59AEEC1
:100180000197F1F700C0000080E30E9493008FE127
:100190009EE40197F1F700C0000080E30E94930005
:1001A0008FED91E00197F1F700C0000080E30E941D
:1001B000930080E20E9493008FE39FE10197F1F7A3
:1001C00000C0000088E20E949E008FE39FE101973B
:1001D000F1F700C000008FE00E949E008FE39FE1D6
:1001E0000197F1F700C000000895CF93C82F289A17
:1001F0000E9493008C2F8295807F0E9493008FE352
:100200009FE10197F1F700C00000CF910895CF93CF
:10021000DF93EC018991882319F00E94F500FACF51
:10022000DF91CF910895ECE7F0E090811082AAE78A
:10023000B0E09C911C9290818F70892B808380818B
:10024000806480838081806280838C9187608C93BE
:100250008C9180688C93089580917A00806480935B
:100260007A0080917A0086FDFCCF80917900089514
:10027000CF93DF93CDB7DEB7A3970FB6F894DEBF69
:100280000FBECDBF0E94B80081E00E949E008AE0B0
:1002900091E00E9407018AE0E0E0F1E0DE01529681
:1002A00001900D928A95E1F72FEF87EA91E62150B0
:1002B00080409040E1F700C0000081E00E949E0075
:1002C00082E090E090935301809352018A899B8948
:1002D0009093590180935801609158017091590190
:1002E0002091520130915301E8E5F2E0CF010E94E4
:1002F0008E03CB012F5F3F4FB9010E948E03709395
:100300005701609356016091580170915901009115
:100310005201109153012091520130915301CF01AC
:100320000E948E03609FC001619F900D709F900D91
:1003300011242F5F3F4FB9010E948E03709351012A
:100340006093500110924F0110924E01109255018E
:100350001092540110924D0110924C0181E090E0F6
:1003600090935B0180935A01209152013091530187
:1003700080915801909159013F932F939F938F93B0
:100380008EE191E09F938F931F9281E18F938E0175
:100390000F5F1F4F1F930F930E94B603C8010E9467
:1003A000070188B1886388B9809181008860809353
:1003B000810080916F00826080936F008AE698E1EF
:1003C000909389008093880080918100846080935D
:1003D000810078940FB6F894DEBF0FBECDBFC12C5C
:1003E000D12C28E5A22E22E0B22E66246394712C33
:1003F0004EE1442E41E0542E51E1952E68E0862EC8
:100400007E01BCE1EB0EF11C75E4272E71E0372E66
:1004100035997CC08FE19EE40197F1F700C00000A0
:10042000359BFECF9FEFC91AD90AA5E0CA16D104A1
:1004300014F0C12CD12CF601EE0FFF1FE00FF11FBD
:100440008189928990935901809358016091580154
:10045000709159012091520130915301C5010E94C0
:100460008E03CB012F5F3F4FB9010E948E03709323
:100470005701609356016091580170915901E091C4
:100480005201F09153012091520130915301C50165
:100490000E948E036E9FC0016F9F900D7E9F900DF6
:1004A00011242F5F3F4FB9010E948E0370935101B9
:1004B0006093500110924F0110924E01109255011D
:1004C0001092540110924D0110924C0170925B01F8
:1004D00060925A012091520130915301809158014C
:1004E000909159013F932F939F938F935F924F92D7
:1004F0001F929F921F930F930E94B603C8010E9400
:1005000007010FB6F894DEBF0FBECDBF34998AC085
:10051000AFE1BEE41197F1F700C00000349BFECFBD
:100520008091520190915301029729F470925301E6
:10053000609252010CC08091520190915301019739
:1005400031F482E090E09093530180935201F601E0
:10055000EE0FFF1FE00FF11F8189928990935901DF
:100560008093580160915801709159012091520176
:1005700030915301C5010E948E03CB012F5F3F4F85
:10058000B9010E948E0370935701609356016091E8
:10059000580170915901E0915201F091530120915D
:1005A000520130915301C5010E948E036E9FC0011C
:1005B0006F9F900D7E9F900D11242F5F3F4FB901CB
:1005C0000E948E03709351016093500110924F016D
:1005D00010924E01109255011092540110924D014B
:1005E00010924C0170925B0160925A01209152016D
:1005F0003091530180915801909159013F932F936D
:100600009F938F935F924F921F929F921F930F938E
:100610000E94B603C8010E9407010FB6F894DEBF1E
:100620000FBECDBF339922C08FE19EE40197F1F751
:1006300000C00000339BFECF92E09F93ACEBAF93E2
:10064000A0E3B1E0BF93AF931F928F92FF92EF921E
:100650000E94B60367E081E00E94B000C7010E94DB
:1006600007010FB6F894DEBF0FBECDBF80914E01DB
:1006700090914F01892BA9F060E081E00E94B000C9
:1006800087E391E00E94070110924F0110924E0102
:1006900010924D0110924C0110925B0110925A0180
:1006A000B7CE8091540190915501892B09F4B0CEB9
:1006B00060E081E00E94B0008EE391E00E940701BB
:1006C000109255011092540120914C0130914D012E
:1006D00080915001909151013F932F939F938F935D
:1006E0003F922F921F9296E09F93FF92EF920E946B
:1006F000B60367E081E00E94B000C7010E940701D5
:1007000010924D0110924C0170925B0160925A015F
:100710000FB6F894DEBF0FBECDBF7ACE97FB072E83
:1007200016F4009407D077FD09D00E94A20307FCBD
:1007300005D03EF4909581959F4F089570956195F1
:100740007F4F0895AA1BBB1B51E107C0AA1FBB1F07
:10075000A617B70710F0A61BB70B881F991F5A954D
:10076000A9F780959095BC01CD010895AEE0B0E069
:10077000ECEBF3E00C946C060D891E898F89988D43
:1007800026E02C831A83098397FF02C080E090E85B
:1007900001979E838D83AE01455E5F4F698D7A8D93
:1007A000CE0101960E94E6034D815E8157FD0AC08D
:1007B0002F813885421753070CF49A01F801E20F94
:1007C000F31F10822E96E4E00C948806ACE0B0E0B3
:1007D000ECEEF3E00C945E067C016B018A01FC01F7
:1007E00017821682838181FFBDC1CE0101964C0123
:1007F000F7019381F60193FD859193FF81916F013C
:10080000882309F4ABC1853239F493FD859193FFB8
:1008100081916F01853229F4B70190E00E94CE05E5
:10082000E7CF512C312C20E02032A0F48B3269F03C
:1008300030F4803259F0833269F420612CC08D325B
:1008400039F0803339F4216026C02260246023C04F
:10085000286021C027FD27C030ED380F3A3078F4EA
:1008600026FF06C0FAE05F9E300D1124532E13C000
:100870008AE0389E300D1124332E20620CC08E3257
:1008800021F426FD6BC1206406C08C3611F420686B
:1008900002C0883641F4F60193FD859193FF819162
:1008A0006F018111C1CF982F9F7D9554933028F40B
:1008B0000C5F1F4FFFE3F9830DC0833631F08337A0
:1008C00071F0833509F05BC022C0F8018081898313
:1008D0000E5F1F4F44244394512C540115C038011E
:1008E000F2E06F0E711CF801A080B18026FF03C0FA
:1008F000652D70E002C06FEF7FEFC5012C870E946D
:10090000C3052C0183012C852F77222E17C03801B7
:10091000F2E06F0E711CF801A080B18026FF03C0C9
:10092000652D70E002C06FEF7FEFC5012C870E943C
:10093000B8052C012C852068222E830123FC1BC0C6
:10094000832D90E048165906B0F4B70180E290E09C
:100950000E94CE053A94F4CFF50127FC859127FE3D
:1009600081915F01B70190E00E94CE0531103A9469
:10097000F1E04F1A51084114510471F7E5C0843673
:1009800011F0893639F5F80127FF07C060817181C0
:10099000828193810C5F1F4F08C06081718188271D
:1009A00077FD8095982F0E5F1F4F2F76B22E97FF01
:1009B00009C090958095709561957F4F8F4F9F4F9F
:1009C0002068B22E2AE030E0A4010E940006A82E82
:1009D000A81844C0853729F42F7EB22E2AE030E0D3
:1009E00025C0F22FF97FBF2E8F36C1F018F488355D
:1009F00079F0B4C0803719F0883721F0AFC02F2FBD
:100A00002061B22EB4FE0DC08B2D8460B82E09C0BB
:100A100024FF0AC09F2F9660B92E06C028E030E060
:100A200005C020E130E002C020E132E0F801B7FE6D
:100A300007C060817181828193810C5F1F4F06C066
:100A40006081718180E090E00E5F1F4FA4010E94E1
:100A50000006A82EA818FB2DFF77BF2EB6FE0BC0F0
:100A60002B2D2E7FA51450F4B4FE0AC0B2FC08C092
:100A70002B2D2E7E05C07A2C2B2D03C07A2C01C085
:100A8000752C24FF0DC0FE01EA0DF11D808180331D
:100A900011F4297E09C022FF06C07394739404C028
:100AA000822F867809F0739423FD13C020FF06C0BF
:100AB0005A2C731418F4530C5718732C731468F4CD
:100AC000B70180E290E02C870E94CE0573942C85BC
:100AD000F5CF731410F4371801C0312C24FF12C065
:100AE000B70180E390E02C870E94CE052C8522FF81
:100AF00017C021FF03C088E590E002C088E790E0BE
:100B0000B7010CC0822F867859F021FD02C080E227
:100B100001C08BE227FD8DE2B70190E00E94CE0577
:100B2000A51438F4B70180E390E00E94CE055A94F2
:100B3000F7CFAA94F401EA0DF11D8081B70190E08E
:100B40000E94CE05A110F5CF332009F451CEB70194
:100B500080E290E00E94CE053A94F6CFF7018681BC
:100B6000978102C08FEF9FEF2C96E2E10C947A06FA
:100B7000FC010590615070400110D8F78095909568
:100B80008E0F9F1F0895FC0161507040019001106D
:100B9000D8F7809590958E0F9F1F08950F931F9300
:100BA000CF93DF93182F092FEB018B8181FD03C0B9
:100BB0008FEF9FEF20C082FF10C04E815F812C819C
:100BC0003D81421753077CF4E881F9819F012F5F33
:100BD0003F4F39832883108306C0E885F985812F2C
:100BE0000995892B29F72E813F812F5F3F4F3F8346
:100BF0002E83812F902FDF91CF911F910F91089518
:100C0000FA01AA27283051F1203181F1E8946F933D
:100C10006E7F6E5F7F4F8F4F9F4FAF4FB1E03ED0E3
:100C2000B4E03CD0670F781F891F9A1FA11D680F81
:100C3000791F8A1F911DA11D6A0F711D811D911DB4
:100C4000A11D20D009F468943F912AE0269F112429
:100C50003019305D3193DEF6CF010895462F47708D
:100C6000405D4193B3E00FD0C9F7F6CF462F4F70E8
:100C7000405D4A3318F0495D31FD4052419302D046
:100C8000A9F7EACFB4E0A6959795879577956795EC
:100C9000BA95C9F700976105710508959B01AC01EC
:100CA0000A2E06945795479537952795BA95C9F713
:100CB000620F731F841F951FA01D08952F923F92EE
:100CC0004F925F926F927F928F929F92AF92BF925C
:100CD000CF92DF92EF92FF920F931F93CF93DF9308
:100CE000CDB7DEB7CA1BDB0B0FB6F894DEBF0FBE65
:100CF000CDBF09942A88398848885F846E847D84B2
:100D00008C849B84AA84B984C884DF80EE80FD80B3
:100D10000C811B81AA81B981CE0FD11D0FB6F89429
:0E0D2000DEBF0FBECDBFED010895F894FFCFEA
:100D2E000A000F00140019001E006669676874201F
:100D3E006D6520636F7669643139203A28006270E0
:100D4E006D3A2025642C2065746F693A2025640065
:100D5E0076743A20256400494E48414C450045586A
:0C0D6E0048414C450025642C2564000021
:00000001FF
